S016000050726F736A656B742064656C20312E7372656316
S11300000C9434000C943E000C943E000C943E007E
S11300100C943E000C943E000C943E000C943E0064
S11300200C943E000C943E000C943E000C943E0054
S11300300C943E000C943E000C943E000C943E0044
S11300400C943E000C943E000C943E000C943E0034
S11300500C943E000C943E000C943E000C943E0024
S11300600C943E000C943E0011241FBECFEFD4E04C
S1130070DEBFCDBF0E9440000C9452000C940000DF
S113008081E08AB91BB8589A87EA91E60197F1F79B
S113009000C00000589887EA91E60197F1F700C084
S10B00A00000F1CFF894FFCF3A
S9030000FC
