S01200004F707067617665372E342E73726563A7
S11300000C9434000C943E000C943E000C943E007E
S11300100C943E000C943E000C943E000C943E0064
S11300200C943E000C943E000C943E000C943E0054
S11300300C943E000C943E000C943E000C943E0044
S11300400C943E000C943E000C943E000C943E0034
S11300500C943E000C943E000C943E000C943E0024
S11300600C943E000C943E0011241FBECFEFD4E04C
S1130070DEBFCDBF0E9440000C944B000C940000E6
S11300802098289A509A189902C0589AFCCF189B25
S10D0090FACF5898F8CFF894FFCF88
S9030000FC
